:0400000013EF13F0F7
:08000800046ED8CF05F0E0CF33
:1000100006F00001E9CF0CF0EACF07F0E1CF08F0DD
:10002000E2CF09F0D9CF0AF0DACF0BF0F3CF12F01C
:10003000F4CF13F0FACF14F0F5CF15F0F6CF16F099
:10004000F7CF17F000C00EF001C00FF002C010F0A3
:1000500003C011F09DA230EF00F09EB2CAEF01F094
:100060009DAA36EF00F09EBA7FEF02F0A3AA3CEF04
:1000700000F0A4BA1CEF03F00EC000F00FC001F0B6
:1000800010C002F011C003F00CC0E9FF07C0EAFF86
:10009000078E08C0E1FF09C0E2FF0AC0D9FF0BC00C
:1000A000DAFF12C0F3FF13C0F4FF14C0FAFF15C04B
:1000B000F5FF16C0F6FF17C0F7FF045006C0E0FFBB
:1000C00005C0D8FF1000050E6127000E6223050E43
:1000D0007027000E7123722373238EA106D0050EA4
:1000E0008A27000E8B238C238D23050E6827000E94
:1000F00069236A236B236B530DE16A51080810E2F0
:10010000FF0A08E1695126080BE2FF0A03E1685182
:10011000C00806E26B6B6A6B696B686B676B666B3A
:10012000050E5826000E59225A225B225B520DE121
:100130005A50080810E2FF0A08E1595026080BE25D
:10014000FF0A03E15850C00806E2576A566A5B6A24
:100150005A6A596A586A60530FE0050E5E26000E0F
:100160005F225D505F5C08E303E15E505C5C04E28B
:1001700063915F6A5E6A606B4FA00FD0050E5226D6
:10018000000E53225150535C08E303E15250505C7F
:1001900004E263914F90536A526A7DA31AD0050E10
:1001A0008227000E8323842385238151855D11E3FB
:1001B0000BE18051845D0DE307E17F51835D09E32D
:1001C00003E17E51825D05E37D93856B846B836BD8
:1001D000826B74A11BD0050E7927000E7A237B2336
:1001E0007C2378517C5D12E30BE177517B5D0EE35C
:1001F00007E176517A5D0AE303E17551795D06E323
:1002000074917C6B7B6B7A6B796B6391CBEF01F0B4
:100210000201B3A11BD0050EAF27000EB023B123FE
:10022000B223AE51B25D11E30BE1AD51B15D0DE30F
:1002300007E1AC51B05D09E303E1AB51AF5D05E30C
:10024000B26BB16BB06BAF6BB39104D0B26BB16BEF
:10025000B06BAF6BA651050850E198A13FD0050ED9
:10026000A127000EA223A323A4239751000A000173
:1002700003E0010A1AE030D00201A051A45D13E3AB
:100280000BE19F51A35D0FE307E19E51A25D0BE3DC
:1002900003E1A1519D5D07E2A781A46BA36BA26B53
:1002A000A16B010E976F000117D002019C51A45D54
:1002B00012E30BE19B51A35D0EE307E19A51A25DAE
:1002C0000AE303E1A151995D06E29891976BA46B53
:1002D000A36BA26BA16B000108D00201A791976BE1
:1002E000A46BA36BA26BA16B00010201A7B102D0AA
:1002F0008B9801D08B88949826D0A651030823E1CF
:10030000A5A121D0050EA127000EA223A323A4237B
:10031000A4530AE1A35308E1A2510A0814E2FF0A18
:1003200003E1A151B8080FE2A7914DB4A781A46BD6
:10033000A36BA26BA16BA7B102D08B9801D08B8865
:100340009498A591A7830001CCEF01F0938003015D
:10035000879181B08781006A87B300808751001838
:10036000010B05E0050E8A27000E8B2302D08B6B54
:100370008A6B89518B5D0BE303E188518A5D07E34A
:10038000879387B187834D9A87B14D8A4D88000145
:10039000CDEF01F098D63CD7D9D763A108D04DACAA
:1003A00006D0050E0401D75F000ED85B00019E92B7
:1003B0003CEF00F004009EAAFDD7ABCF1FF0AECFFC
:1003C00001F01FA202D0AB98AB8882EF02F0016669
:1003D00003D0026602D007D0022A00C0EEFF012E31
:1003E000FCD7022EFAD712000201B451000A000114
:1003F0000BE0010A25E0030A3AE0010A43E0070A9C
:100400005BE0010A5FE076D00701DF51020803E1FB
:100410000201B42B0701DFC7B6F2DFC7B7F2020152
:10042000BB6BBC6B020EEA6EBD0EE96E0068026A21
:10043000C80E016E0001CBDF0201B56B5DD000017B
:10044000DFC7BBF20201B42B0701DF510201B6275F
:10045000B651B727020EEA6EBD0EE96E0068026A59
:10046000C80E016E0001B3DF020146D00001DFC7F4
:10047000BCF20701DF510201B627B651B727B42BF2
:100480003BD000010201BC51B55D11E2036AB551D8
:10049000BD0FE96E020E0320EA6EDFC7EFFF070112
:1004A000DF510201B627B651B727B52B03D0DFC7FE
:1004B000B9F2B42B21D00001DFC7BAF20201B42B8C
:1004C0001BD000010701DF5103080EE10201B65104
:1004D000B95D06E1B751BA5D03E1010EB86F02D014
:1004E000020EB86F04D00701030E0201B86FB46B9F
:1004F00003D000010201B46B000187EF02F09EAA55
:1005000006D058D701C0DEF7DEC7DFF76DD79E9A59
:100510003CEF00F00400A4AAFDD7A6CF1FF07ACFCD
:1005200001F01FA202D0A698A6881FEF03F09151F8
:10053000000A0BE0010A15E0030A19E0010A1DE0B8
:10054000070A33E0010A37E06ED00701DF510208E5
:1005500006E101018E6B0001912B6395070169D0C3
:100560000001DFC792F0912B070163D00001DFC7C4
:1005700093F0912B07015DD00001935101018E5D35
:1005800006E3DFC78FF10001912B0CD001018E51E2
:100590008E2B036A940FE96E000E0320EA6EDFC70C
:1005A000EFFF0001070145D00001DFC790F1912B5B
:1005B00007013FD000010701DF5103082FE1020EC0
:1005C000E06FE16F000192510701E027E051E12760
:1005D000000193510701E027E051E127E26B0001A0
:1005E00093510701E25D0DE2036AE251940FE96E57
:1005F000000E0320EA6EEF50E027E051E127E22BE6
:10060000EED701018F510701E05D08E10101905132
:100610000701E15D03E10001638507010001916BC2
:10062000070107D0000101018E6B0001916B6395FA
:100630000701000124EF03F0A4AA06D06BD701C084
:10064000DEF7DEC7DFF773D7A49A3CEF00F05468FB
:100650006520444249206973207475726E65642078
:100660004F4E000044617461204C656E67746820D1
:100670004E6F7420416C6C6F776564004D494D4539
:10068000204D6573736167652052656365697665A2
:10069000640057616974696E67204D494D4520417A
:1006A000434B000054686520494F58206973204E21
:1006B0006F742053796E6368726F6E697A65640037
:1006C0005761697420256C75205320546F20536541
:1006D0006E6420612054657874204D657373616782
:1006E0006520416761696E004D494D45204D657338
:1006F0007361676520746F20536572766572204E52
:100700006F7420416C6C6F776564000044617461A4
:10071000204C656E677468204E6F7420416C6C6F5E
:1007200077656400437573746F6D20446174612054
:100730005265636569766564000054686520494FB9
:1007400058206973204E6F742053796E6368726FFE
:100750006E697A65640057617474696E67204375C9
:1007600073746F6D20446174612041434B00576185
:100770007474696E67205374617475732044617476
:10078000612041434B005761697420256C752053EB
:1007900020546F2053656E64206120437573746F1D
:1007A0006D204461746120416761696E000043758A
:1007B00073746F6D2044617461204E6F74205375A3
:1007C00070706F727465640044617461204C656E72
:1007D000677468204E6F7420416C6C6F776564009D
:1007E000537461747573204461746120526563654C
:1007F00069766564000054686520494F5820697324
:10080000204E6F742053796E6368726F6E697A65DB
:10081000640057616974696E6720437573746F6D06
:1008200020446174612041434B0057616974696ED3
:10083000672053746174757320446174612041436F
:100840004B005374617475732044617461204E6F62
:100850007420537570706F727465640057616974A9
:10086000696E6720437573746F6D20616E642053E9
:10087000746174757320446174612043616E6365B3
:100880006C6C6564000050696E67204F6B004E6FA2
:1008900020476F20496E666F204461746120417665
:1008A00061696C61626C650054686520494F58202D
:1008B0006973204E6F742053796E6368726F6E692E
:1008C0007A656400476F20496E666F2052657175C6
:1008D000657374204E6F7420537570706F727465F9
:1008E00064004D494D452057616974696E67204128
:1008F000434B2046726F6D205365727665722043BC
:10090000616E63656C6C65640000546865204163CA
:10091000747561746F7220697320436F6E666967C6
:10092000757265642061732054696D6564204F752C
:100930007470757400005468652041637475617447
:100940006F7220697320436F6E66696775726564A4
:10095000206173204F7574707574000054686520B1
:100960004163747561746F72206973204E6F7420D7
:10097000436F6E6669677572656400005468652030
:1009800054696D6564204163747561746F72206988
:100990007320476F696E6720746F20626520417015
:1009A000706C69656420696E20254C552053204485
:1009B0007572696E6720254C55205320627920504E
:1009C000430041637420504320544F20254C752030
:1009D000254C752100005468652054696D656420BC
:1009E0004163747561746F7220697320476F696E1B
:1009F0006720746F206265204170706C69656420A7
:100A0000696E20254C55205320447572696E67200D
:100A1000254C5520532062792050430041637420B7
:100A2000504320544F20254C7520254C7521000043
:100A3000546865204163747561746F722069732016
:100A4000436F6E66696775726564206173204F75C8
:100A50007470757400004C6F63616C2054696D652F
:100A600064204163747561746F7220436F6E747299
:100A70006F6C204E6F7420537570706F7274656464
:100A800000004163747561746F722044657369720C
:100A9000656420537461747573203D202555206270
:100AA000792050430000416374205043204F20259B
:100AB00075210000546865204163747561746F721C
:100AC00020697320436F6E66696775726564206183
:100AD000732054696D6564204F75747075740000DF
:100AE0004C6F63616C204163747561746F72204355
:100AF0006F6E74726F6C204E6F7420537570706FD0
:100B00007274656400004163747561746F72205281
:100B10006571756573742043616E63656C6C6564A3
:100B200000004163742050432043616E63656C6C28
:100B3000656421004163747561746F722052657140
:100B400075657374204E6F742043616E63656C6CC1
:100B50006564204475652054696D654F75740000A7
:100B60004163747561746F722056616C75653A20CB
:100B70002575000044424920697320676F696E67DC
:100B800020746F206265207265737461727465648D
:100B900020696E2032207365636F6E647320427922
:100BA0002050430054686520494F582069732053F2
:100BB000796E6368726F6E697A6564005468652047
:100BC000494F58206973204E6F742053796E6368C3
:100BD000726F6E697A65640046696D7277617265DD
:100BE0002056657273696F6E3A2025752E25750043
:100BF00048617264776172652056657273696F6EC1
:100C00003A2025752E25750049676E6974696F6EE7
:100C1000204F4E0049676E6974696F6E204F4646DB
:100C20000000496E7075742056616C75653A202518
:100C30007500496E70757420537461746520526537
:100C40007175657374204E6F7420537570706F7278
:100C50007465640053657269616C2049443A2025CB
:100C60004C58255825582558255825582558255875
:100C700025580000556E6964656E7469666965641F
:100C800020436F6D6D616E640000436865636B7334
:100C9000756D204661696C00496E76616C696420EF
:100CA0004672616D6520466F726D61740000546814
:100CB0006520494F582069732053796E6368726FBD
:100CC0006E697A65640054686520494F58206973DD
:100CD000204E6F742053796E6368726F6E697A6507
:100CE0006400437573746F6D2044617461205365B3
:100CF0006E740000537461747573204461746120D4
:100D000053656E7400004D494D45204D6573736108
:100D100067652053656E74004D494D45204D6573E0
:100D200073616765204661696C6564004D65737326
:100D30006167652044656C697665726564004D493C
:100D40004D45204D657373616765732046726F6D05
:100D500020536572766572204E6F742053757070E3
:100D60006F72746564004163747561746F722044BE
:100D700065736972656420537461747573203D20D6
:100D800025552062792053657276657200004163B3
:100D90007420536572766572204F203121004163C3
:100DA000747561746F722044657369726564205351
:100DB0007461747573203D20255520627920536538
:100DC00072766572000041637420536572766572B5
:100DD000204F2030210054696D6564204F75747078
:100DE0007574204163747561746F72206E6F205248
:100DF00065616C697A61646F20706F72204D6F64F9
:100E00006F206465204163747561646F720054687B
:100E1000652054696D6564204163747561746F72F7
:100E200020697320476F696E6720746F20626520A8
:100E30004170706C69656420696E20254C552053A3
:100E400020447572696E6720254C552053206279C5
:100E50002053657276657200416374205365727623
:100E6000657220544F20254C7520254C75210000BB
:100E70004F7574707574204163747561746F72205E
:100E80006E6F205265616C697A61646120706F7267
:100E9000204D6F646F206465204163747561646FD9
:100EA000720053696E205065746963696F6E2064C7
:100EB00065204163747561646F72000050494E2073
:100EC000256C7520496E636F72726563746F0000E4
:100ED00050494E2053696E20466F726D61746F00E9
:100EE0005469656D706F206465204573706572612B
:100EF00020506172612050494E20537570657261B7
:100F0000646F000050494E204E6F2045737065722B
:100F100061646F00444249204865617274426561B2
:100F20007421000044424920697320676F696E672D
:100F300020746F20626520726573746172746564D9
:100F400020696E2032207365636F6E64732042796E
:100F5000205365727665720049676E6974696F6EB9
:100F6000204F4E0049676E6974696F6E204F464688
:100F70000000444249204D73672E2046573A2076A0
:100F800025752E25752048573A207625752E25750E
:100F9000000044424920454550524F4D20426C6F5D
:100FA000636B3A2025750000444249204865617210
:100FB0007442656174210000496E70757420566139
:100FC0006C75653A20257500060EEA6EC70EE96E4F
:100FD000EF5011E00C0E016EBF0E006E0400002EEB
:100FE000FDD7012EF9D7F70E006E002EFED70000B8
:100FF0000400EF2EEFD71200070123512503F3CF92
:1010000001F0F4CF00F02603F3500026245125030D
:10101000F3500020026E00011200070103C705F71C
:1010200002C706F70551756E0651746E7F9E7F9C50
:101030007F80000073CF04F700010400070104C79C
:1010400001F0000112000601F46B270EF36F060E8B
:10105000F66FCC0EF56FF791F86BF96B010EC95D69
:101060000701016F246B236FF4C626F7F3C625F73B
:101070000001C2DF02C0FBF601C0FAF60601C95149
:1010800001081CE2010EC95D0701016F246B236F8B
:10109000F4C626F7F3C625F70001AEDF010E060100
:1010A000C95D006ED890003600500701012406018A
:1010B000FA6F000E070102200601FB6FFC6BF45370
:1010C00003E1F351FC5D23E2FC51FA250701006FB7
:1010D000000E0601FB210701016F036F00C702F735
:1010E00000019BDF01C0FDF6F6C603F00601F5C660
:1010F000E9FF03C0EAFFFDC6EFFFF52BD8B4F62BDE
:10110000FD51F827F851F9270400FC2BD8D7F351EB
:10111000FA250701006F0601F451FB210701016F59
:10112000036F00C702F7000178DF01C0FEF6060179
:10113000F351FA250701006F0601F451FB21070165
:10114000016F010E0027000E012301C703F700C73E
:1011500002F7000162DF01C0FFF60601FE51F85DF3
:1011600012E1FF51F95D0FE1CBC6EAFFCAC6E9FF04
:10117000060EE26ECC0EE16E270E016EE6CFEEFF9C
:10118000012EFCD7F781000EF7B1010E016E0001B0
:10119000ABEF09F0070124C726F723C727F726512D
:1011A000756E2751746E2551736E7F9E7F9C7F8470
:1011B000F29E550E7E6EAA0E7E6E7F827FB2FED7A5
:1011C000F28E7F940001040012000701166B270EB7
:1011D000156F176B186B1A6B196B0601ED5101082F
:1011E0001AE2010EED5D0701226F246B236F16C713
:1011F00026F715C725F70001FFDE010E0601ED5D9C
:10120000006ED8900036005007010124196F000EBF
:1012100002201A6F0601060E07011C6FEE0E1B6FEF
:101220001D6B165303E115511D5D20E21CC703F031
:101230001B511B2BD8B41C2BE96E03C0EAFFEFCF68
:101240001EF71D511925216F000E1A21226F246FE0
:1012500021C723F71EC725F700019CDF07011E5198
:1012600017271751182704001D2BDBD715511925F7
:101270001F6F16511A21206F20C724F71FC723F7AD
:1012800017C725F7000186DF07011F2BD8B4202BD5
:1012900020C724F71FC723F718C725F700017ADFF7
:1012A00012004490050E376E3B6A3A6A130E396E8F
:1012B000880E386E3F6A3E6A3A0E3D6E980E3C6E5E
:1012C000436A426AEA0E416E600E406E4482486A8A
:1012D0000D0E476EBB0E466EA00E456E4484366AF8
:1012E000356A070E346ED00E336E2E8E2E9C130E82
:1012F000306E880E2F6E326AC80E316E2E882E8A9E
:10130000130E276E880E266E2B6A2A6AEA0E296E45
:10131000600E286E070E2D6ED00E2C6E2E802E8243
:101320002E842E9644864488448A4C6AFA0E4B6E6C
:10133000750E4A6E8B0E496E449C449E4D9044BC83
:101340004D800601C7914E2A4EC0C9F6CB6B260EC2
:10135000CA6F000178D6015203E00601C78100017F
:101360000601C7B103D04E501708EDE24E500108F8
:101370005EE2010EC86F030E4E24C85D58E2C851EC
:10138000180853E3C8C6EDF626C0EEF627C0EFF600
:1013900028C0F0F629C0F1F62AC0F2F62BC0F3F609
:1013A0002CC0F4F62DC0F5F62EC0F6F62FC0F7F6D9
:1013B00030C0F8F631C0F9F632C0FAF633C0FBF6A9
:1013C00034C0FCF635C0FDF636C0FEF637C0FFF679
:1013D00038C000F739C001F73AC002F73BC003F745
:1013E0003CC004F73DC005F73EC006F73FC007F715
:1013F00040C008F741C009F742C00AF743C00BF7E5
:1014000044C00CF745C00DF746C00EF747C00FF7B4
:1014100048C010F749C011F74AC012F74BC013F784
:101420004CC014F70001D1DE0601C82BA4D7C7B108
:1014300001D04E684D9044BC4D80000EC7B1010EE6
:10144000016E000162EF0AF0780E0609CA6EC30E43
:10145000CB6E040E0F015E6F5F6F9D829D8AA38A23
:10146000C00EF212D180000E946E926E929089900E
:101470008B9894980601C66BC56BC65321E1C55184
:1014800009081EE392908970190EC76F00019CDD58
:101490000400190E0601C76F000196DD0400190E45
:1014A0000601C76F000190DD0400190E0601C76F29
:1014B00000018ADD04000601C52BD8B4C62BDDD798
:1014C0000001EFD6015200E120902EB8208020923A
:1014D0002EBA208220942EB2208420962EB0208610
:1014E00020982EB6208821902EB42180209A2EBEDE
:1014F000208A209E2EBC208E209C44B2208C2192DB
:1015000044B62182219444B82184219644BA21868C
:101510000401EC93000176EF13F002019891A46BA3
:10152000A36BA26BA16BB26BB16BB06BAF6BA591F0
:10153000A593A86BA793270EAA6F100EA96FB3915E
:1015400037C0A6F2A79144B0A7813FC09CF23EC02D
:101550009BF23DC09AF23CC099F23BC0A0F23AC067
:101560009FF239C09EF238C09DF243C0AEF242C035
:10157000ADF241C0ACF240C0ABF2A651030807E1A6
:10158000A7B102D08B9801D08B8894980AD0A6512D
:10159000050807E1A791A7B102D08B9801D08B88ED
:1015A0009498000178EF13F06391639530C05DF07B
:1015B0002FC05CF027C051F026C050F05F6A5E6A11
:1015C000536A526A6391606B626B616B639332C062
:1015D00065F031C064F06B6B6A6B696B686B676B4D
:1015E000666B2BC081F02AC080F029C07FF028C034
:1015F0007EF0856B846B836B826B7D932DC055F081
:101600002CC054F0576A566A5B6A5A6A596A586A1B
:1016100036C06FF035C06EF034C06DF033C06CF082
:10162000736B726B716B706B7D917491786B776B70
:10163000130E766F880E756F7C6B7B6B7A6B796B94
:1016400048C089F047C088F046C087F045C086F0A2
:101650008D6B8C6B8B6B8A6B8E9144B48E81916B8E
:10166000926B936B01018E6B8F6B906B00017AEF25
:1016700013F00301878187834CC089F34BC088F343
:101680008B6B8A6B4AC08DF349C08CF34D984D8AA1
:1016900000017CEF13F086C3EAFF85C3E9FF070171
:1016A000DBC7EFFFE92AD8B4EA2AEF6A0301852BEA
:1016B000D8B4862B000112000900F5520CE0F6CFD9
:1016C000C5F6F7CFC6F6F5CFDBF7E5DFC5C6F6FF03
:1016D000C6C6F7FFF1D712000701DABF11D00F0E0F
:1016E000006ED93900160A0E005C03E2300E0026A7
:1016F00002D0DA51002600C0DBF70001CCDF070181
:101700000F0ED9170A0ED95D02E2300E02D0DA9F11
:10171000DA51D927D9C7DBF70001BDDF1200070175
:10172000DC51016ADB5D03E2DBC700F00CD0006A2C
:10173000080EDD6FDB370036DC51005CD8B0006E80
:101740000136DD2FF7D7000112000150D9C7DBF7B2
:10175000640E0701DC6F0001E2DF00C0D9F7015021
:10176000300E08E10701DAA30FD0DAB70DD0DAB9ED
:10177000200E04D00701DA97DA99DA81012601C038
:10178000DBF7000188DF0701D9C7DBF70A0EDC6F42
:101790000001C5DF00C0D9F70150300E08E1070194
:1017A000DAB70AD0DAA108D0DAB9200E0001012692
:1017B00001C0DBF770DF0701300ED927D9C7DBF78F
:1017C000000169DF120004009EA8FDD7AD6E120073
:1017D0000601D36B0701CE6BCE51CE2B036AD40F1B
:1017E000E96E060E0320EA6E020EEF6ECE51CE2B8E
:1017F000036AD40FE96E060E0320EA6E1F0EEF6E29
:10180000060E0301866FC90E856FC5C6D9F7370E60
:101810000701DA6F000160DFC90E0301855D060173
:10182000D36F0701CF6B0601D3510701CF5D1AE2D9
:10183000CE51CE2B036AD40F016E060E032203C0D5
:10184000DAF7036ACF51C90FE96E060E0320EA6E7C
:10185000EFCFDBF7DAC7EAFF01C0E9FFDBC7EFFF35
:10186000CF2BE1D7CE51CE2B036AD40FE96E060EF3
:101870000320EA6E1F0EEF6E060E0301866FC90E7F
:10188000856FC6C6D9F71B0E0701DA6F00015DDF51
:10189000C90E0301855D0601D36F0701D06B0601F8
:1018A000D3510701D05D1AE2CE51CE2B036AD40F7B
:1018B000016E060E032203C0DAF7036AD051C90F86
:1018C000E96E060E0320EA6EEFCFDBF7DAC7EAFF18
:1018D00001C0E9FFDBC7EFFFD02BE1D7CE51CE2B04
:1018E000036AD40FE96E060E0320EA6E1F0EEF6E38
:1018F000D16B0601C6510701D15D1EE2CE51CE2B40
:10190000036AD40F016E060E032203C0DAF7060144
:10191000C8C603F0C751C72BD8B4C82BE96E03C0A3
:10192000EAFFEFCFDBF70701DAC7EAFF01C0E9FF03
:10193000DBC7EFFFD12BDDD7CE51CE2B036AD40FFF
:10194000E96E060E0320EA6E1F0EEF6ED26BD36BAC
:10195000D46BCE51D45D13E2036AD451D40FE96E37
:10196000060E0320EA6EEFCFD5F7D551D227D2511C
:10197000D327D551000127DF0701D42BEAD7D2C7DF
:10198000D7F7D3C7D6F7060E0301866FC90E856F4A
:10199000D7C7D9F7370E0701DA6F00019DDED6C72A
:1019A000D9F7370E0701DA6F000196DEC90E030181
:1019B000855D0601D36F0701D86B0601D35107017E
:1019C000D85D0FE2036AD851C90FE96E060E0320F5
:1019D000EA6EEFCFD9F7D9510001F5DE0701D82B18
:1019E000ECD71F0E0001EFDE030EEDDE1200040047
:1019F000A4A8FDD7796E12000701D25100018F27EC
:101A00008F5190270701D2510001F1DF12008F6B37
:101A1000906B020E0701D06FD0C7D2F70001ECDF48
:101A2000860E0701D06FD0C7D2F70001E5DF0701AE
:101A3000CD51FA0802E2FA0ECD6FCDC7D0F7D0C76C
:101A4000D2F70001D9DF0701D16BCD51D15D12E290
:101A5000CFC703F0CE51CE2BD8B4CF2BE96E03C045
:101A6000EAFFEFCFD0F7D0C7D2F70001C5DF0701FB
:101A7000D12BEBD700018F51BADF9051B8DF030EA5
:101A8000B6DF4F807D83856B846B836B826B0FEF3A
:101A90000EF00701C36BC46BC56BC351C32B036A44
:101AA000C90FE96E060E0320EA6EEF6AC351C32B1D
:101AB000036AC90FE96E060E0320EA6E8CC2EFFFBF
:101AC000C66B02018C510701C65D1AE2C351C32BDC
:101AD000036AC90F016E060E032203C0CEF7036A24
:101AE000C6518D0FE96E020E0320EA6EEFCFCFF7DD
:101AF000CEC7EAFF01C0E9FFCFC7EFFFC62BE1D792
:101B0000040E0601C6250701C76FC86BC96BCA6BF7
:101B1000C351C32B036AC90FE96E060E0320EA6E98
:101B2000C7C7EFFFC351C32B036AC90FE96E060E87
:101B30000320EA6EC8C7EFFFC351C32B036AC90F66
:101B4000E96E060E0320EA6EC9C7EFFFC351C32B2F
:101B5000036AC90FE96E060E0320EA6ECAC7EFFFDB
:101B6000C351C32B036AC90FE96E060E0320EA6E48
:101B7000C5C6EFFF0601C5510701C427C451C527DB
:101B8000C351C32B036AC90FE96E060E0320EA6E28
:101B9000C6C6EFFF0601C6510701C427C451C527B9
:101BA000CB6B0601C6510701CB5D1DE20601C8C61D
:101BB00003F0C751C72BD8B4C82BE96E03C0EAFFA6
:101BC000EFCFCCF7036A0701C351C90FE96E060EC8
:101BD0000320EA6ECCC7EFFFCC51C427C451C52700
:101BE000C32BCB2BDED7C351C32B036AC90FE96EBE
:101BF000060E0320EA6EC4C7EFFFC351C32B036A6E
:101C0000C90FE96E060E0320EA6EC5C7EFFFC3C712
:101C1000CDF7060ECF6FC90ECE6F0001F8D6562A4B
:101C2000D8B4572A1200D8B204D0060EEA6EE10EDC
:101C3000E96E006A016A026A036A0601E16BE26BFF
:101C4000E36BE46BE051DF11DE11DD112CE0200EBF
:101C5000E56FD890D937DA37DB37DC37E137E23751
:101C6000E337E437E051E45D08E1DF51E35D05E18E
:101C7000DE51E25D02E1DD51E15D0FE3DD51E15F47
:101C8000DE51D8A0DE3DE25FDF51D8A0DF3DE35F4B
:101C9000E051D8A0E03DE45FD8800036013602363E
:101CA0000336E52FD6D7E1C6EFFFE2C6ECFFE3C669
:101CB000ECFFE4C6ECFF000112000900F6CFCEF6FF
:101CC000F7CFCFF6F5CFDBF7E6DCCEC6F6FFCFC613
:101CD000F7FF0601CD2F01D002D00001EED70001A1
:101CE0001200E9500601D16F3B0ED86F9A0ED76FE4
:101CF000CA0ED66FD56B0A0ED36FD882060EEA6E67
:101D0000CD0EE96ED0C6DCF6CFC6DBF6CEC6DAF66F
:101D1000CDC6D9F6D8C6E0F6D7C6DFF6D6C6DEF60B
:101D2000D5C6DDF600017FDF0150005213E1060148
:101D3000D351010AD8A402D000010CD0D1510CE03B
:101D40000F0BD35D01E00FE2D1BF0DD0D1BD04D0A8
:101D5000200E03D00601D16B300E002600C0DBF749
:101D6000000199DC0601D892D8C6DCF6D7C6DBF6AE
:101D7000D6C6DAF6D5C6D9F6E06BDF6BDE6B0A0E97
:101D8000DD6F000150DF03C0D8F602C0D7F601C0F6
:101D9000D6F600C0D5F60601D32FAFD7000112004A
:101DA0008F6B906B020E0601C86FC8C6D2F7000198
:101DB00023DE820E0601C86FC8C6D2F700011CDE02
:101DC0000601C5511B0802E21B0EC56FC5C6C8F649
:101DD000C8C6D2F7000110DE0601C96BC551C95D46
:101DE00012E2C7C603F0C651C62BD8B4C72BE96EA2
:101DF00003C0EAFFEFCFC8F6C8C6D2F70001FCDD8A
:101E00000601C92BEBD700018F51F1DD9051EFDDB9
:101E1000030EEDDD010E606F662BD8B4672B120048
:101E20008F6B906B020E0601CC6FCCC6D2F700010F
:101E3000E3DD0601C52D03D0870ECC6F02D0800EE6
:101E4000CC6FCCC6D2F70001D7DD060E0601CC6FF1
:101E5000CCC6D2F70001D0DD0601C6C6CCF6CCC692
:101E6000D2F70001C9DD0601C7C6CCF6CCC6D2F751
:101E70000001C2DDC8C6CCF6CCC6D2F7BDDDC9C6EE
:101E8000CCF6CCC6D2F7B8DDCAC6CCF6CCC6D2F7F3
:101E9000B3DDCBC6CCF6CCC6D2F7AEDD8F51A7DD15
:101EA0009051A5DD030EA3DD020E606F12008F6B53
:101EB000906B020E0601C56FC5C6D2F700019CDD0E
:101EC000850E0601C56FC5C6D2F7000195DD060176
:101ED000C56BC5C6D2F700018FDD8F5188DD9051EB
:101EE00086DD030E84DD748112000201A46BA36BF6
:101EF000A26BA16BA5814D940601C5B14D84000173
:101F00001200C6C601F0C5C600F00066012A09002D
:101F1000F5CFEEFF002EFBD7012EF9D7F86A12009D
:101F2000550E65DD1FEF1EF08F6B906B020E0601E4
:101F3000C96FC9C6D2F700015FDD810E0601C96F06
:101F4000C9C6D2F7000158DD040E0601C96FC9C623
:101F5000D2F7000151DD0601C5C6C9F6C9C6D2F7E0
:101F600000014ADD0601C6C6C9F6C9C6D2F700019E
:101F700043DD0601C751010BCA6FD890C835020B6B
:101F8000CA11C96FC9C6D2F7000136DD0601C96B97
:101F9000C9C6D2F7000130DD8F5129DD905127DD10
:101FA000030E25DD638187EF1EF08F6B906B020EB1
:101FB0000601C56FC5C6D2F700011EDD840E0601FD
:101FC000C56FC5C6D2F7000117DD0601C56BC5C6D2
:101FD000D2F7000111DD8F510ADD905108DD030EAB
:101FE00006DDD6EF1EF094C0CAF695C0C9F696C0BD
:101FF000C8F697C0C7F698C0CEF699C0CDF69AC07D
:10200000CCF69BC0CBF69CC0D2F69DC0D1F69EC04C
:10201000D0F69FC0CFF6A0C0D3F6A1C0D5F6A2C01F
:10202000D4F6A3C0D9F6A4C0D8F6A5C0D7F6A6C0EA
:10203000D6F6A751010B0601DA91E8B0DA8100016A
:10204000A751020B006ED89000320601DA9300B05F
:10205000DA830001A751040B006E003200323F0EFC
:1020600000160601DA9500B0DA850001A751080BC9
:10207000006E0032003200321F0E00160601DA97A1
:1020800000B0DA870001A751100B006E003A0F0E66
:1020900000160601DA9900B0DA890001A751200B79
:1020A000006E003A0032070E00160601DA9B00B0FF
:1020B000DA8BA8C0DEF6A9C0DDF6AAC0DCF6ABC09C
:1020C000DBF6ACC0E2F6ADC0E1F6AEC0E0F6AFC004
:1020D000DFF6B0C0E6F6B1C0E5F6B2C0E4F6B3C0D4
:1020E000E3F6B4C0EAF6B5C0E9F6B6C0E8F6B7C0A4
:1020F000E7F6B8C0EEF6B9C0EDF6BAC0ECF6BBC074
:10210000EBF6C6C6EAFFC5C6E9FF060EE26EC70ECD
:10211000E16E280E016EE6CFEEFF012EFCD7000126
:10212000DEEF1EF00601C791C86BC96BCA6BCB6BA3
:10213000C6C603F0C551C52BD8B4C62BE96E03C083
:10214000EAFFEFCFCCF6C6C603F0C551C52BD8B415
:10215000C62BE96E03C0EAFFEFCFCDF6CC51CA27FC
:10216000CA51CB27CD51CA27CA51CB27CD51C80858
:1021700036E3CF6BCD51CF5D11E2C6C603F0C5513A
:10218000C52BD8B4C62BE96E03C0EAFFEFCFCEF65D
:10219000CE51CA27CA51CB27CF2BECD7C6C603F0E6
:1021A000C551C52BD8B4C62BE96E03C0EAFFEFCFEB
:1021B000CEF6CEC6C8F6C6C603F0C551C52BD8B4F8
:1021C000C62BE96E03C0EAFFEFCFCEF6CEC6C9F646
:1021D000CA51C85D04E1CB51C95D01E1C781000E60
:1021E000C7B1010E016E0001CCEF1FF051C0CCF65B
:1021F00050C0CBF681C0D0F680C0CFF67FC0CEF6FF
:102200007EC0CDF655C0D2F654C0D1F60601D391AA
:1022100020B6D381D39320B4D383D39521B0D38573
:10222000D39720B8D3875DC0D5F65CC0D4F665C01F
:10223000D7F664C0D6F6D39920B0D389D39B20B209
:10224000D38B6FC0DBF66EC0DAF66DC0D9F66CC00A
:10225000D8F6D39F20BAD38FD39D20BED38DA6C2EC
:10226000DCF6E9910201A7A103D00601E981020190
:10227000A0C2E0F69FC2DFF69EC2DEF69DC2DDF68A
:102280009CC2E4F69BC2E3F69AC2E2F699C2E1F67A
:10229000AEC2E8F6ADC2E7F6ACC2E6F6ABC2E5F612
:1022A0000601E99320BCE98389C0EDF688C0ECF60D
:1022B00087C0EBF686C0EAF6E99500018EA103D04F
:1022C0000601E98500010601E99721B2E987E9994C
:1022D00021B4E989E99B21B6E98B89C3F1F688C36A
:1022E000F0F68DC3EFF68CC3EEF6E99D4DB0E98DA7
:1022F000E99FCB0E016E060E026E00011200C9C6E8
:102300001EF0C8C61DF0C7C61CF0C6C61BF01200E2
:102310000601CD6BCE6B010ECF6FDA6AD96A060E5D
:10232000D26FC50ED16F060EEA6EC90EE96ED2C627
:10233000E2FFD1C6E1FFCFC6D0F6D890E550EE025D
:10234000F350CD23F450CE23D02FF7D7CDC6DEFFE8
:10235000CEC6CDF6CE6BD8B0CE2BD12BD8B4D22BE7
:10236000CF2BCF510508DFE10001EEEF11F0016A3C
:10237000026A006A036A0601CB5102E1CA5118E001
:10238000100ECC6FD890C837C93700360336CB5102
:10239000035C02E1CA51005C07E3CA51005ED8A0A9
:1023A0000306CB51035ED88001360236CC2FEAD724
:1023B00000010EEF12F01EC0C8F61DC0C7F61CC00B
:1023C000C6F61BC0C5F6410E0601CC6FC60ECB6F1C
:1023D0004E0ECA6F6D0EC96F00019AD7390E0601F5
:1023E00000241B6E300E01201C6E000E02201D6E9C
:1023F000000E03201E6E1DC000F01EC001F0026A18
:10240000036A1EC0C7F61DC0C6F61EC0C9F61DC0B1
:10241000C8F67F0ECB6FCA690001A9D700C001F0D2
:1024200003C002F01200EACFCDF6E9CFCCF60601E8
:10243000C639F009C86FC827E20FC96F320FCB6FDA
:10244000C6510F0BC927C927CB27E90FCA6FCA2767
:10245000CA27C5390F0BCA27CB27CA37CB37CB1FA3
:10246000CB37C5510F0BCB27C837070EC76F0A0EE6
:10247000CA07CB27FDE3C907CA27FDE3C807C92759
:10248000FDE3C707C827FDE3060EEA6EC70EE96E37
:10249000070ECC15CC9DE926000EEA22E950CB08A8
:1024A00004E1EA50060801E1CC8DEF50006E08E12E
:1024B000CCBD06D0CCB916D0CCB702D0200E03D0FC
:1024C000CC87CC99300E0026EACFC6F6E9CFC5F608
:1024D00000C0DBF700014BEC0BF0C6C6EAFFC5C637
:1024E000E9FF0601EE50CCADD9D7000124EF28F06A
:1024F00007011391060E156FC50E146F060E176FA8
:10250000EC0E166F186B185126081DE315C703F063
:102510001451142BD8B4152BE96E03C0EAFFEFCF8A
:1025200019F717C703F01651162BD8B4172BE96EFD
:1025300003C0EAFFEFCF1AF71A51195D01E01381CA
:102540000400182BE0D7000E13B1010E016E00013C
:1025500012004E3C02D0FA0E4E6E010E0601EC6FD8
:10256000030E4E24EC5D59E2EC51180854E3ECC61E
:10257000EDF6C5C6EEF6C6C6EFF6C7C6F0F6C8C697
:10258000F1F6C9C6F2F6CAC6F3F6CBC6F4F6CCC667
:10259000F5F6CDC6F6F6CEC6F7F6CFC6F8F6D0C637
:1025A000F9F6D1C6FAF6D2C6FBF6D3C6FCF6D4C607
:1025B000FDF6D5C6FEF6D6C6FFF6D7C600F7D8C6D6
:1025C00001F7D9C602F7DAC603F7DBC604F7DCC6A3
:1025D00005F7DDC606F7DEC607F7DFC608F7E0C673
:1025E00009F7E1C60AF7E2C60BF7E3C60CF7E4C643
:1025F0000DF7E5C60EF7E6C60FF7E7C610F7E8C613
:1026000011F7E9C612F7EAC613F7EBC614F7000193
:10261000E5EC08F00601EC2BA3D74E50FA0801E1D7
:102620004E6800011200F86AD09E078E1F6AA786C6
:10263000110EAF6E040E7D6EA60EAC6E900EAB6EDC
:10264000B986080E7B6E020E7C6EA60EBA6E900ED8
:10265000A66E010E226E236E246E256A4E6A4D927E
:10266000916B926B936B01018E6B8F6B906B916B87
:102670000A0E02018C6F976B4D944D96B46BB56B3F
:10268000B66BB76BB8690301866B856B100E8F6FE5
:102690008E6BD66B0401D66B130ED86F880ED76F76
:1026A0004D8C0F015C51800B5C6F000E5D6FC1960D
:1026B000C198C19A5E6B5F6B196A1A6A740E020147
:1026C0008D6F650E8E6F780E8F6F740E906F2F0E5C
:1026D000916F700E926F6C0E936F610E946F690E16
:1026E000956F6E0E966F000124EF0AF08DEF0AF0E1
:1026F000D4EF0AF039EF0BF0030E0301866F900E52
:10270000856F4E0EF66E060EF76E00015CEC0BF058
:10271000900E0301855DD66F640E0601C56FD6C3AA
:10272000C6F6030EC86F900EC76F0001E8EC0BF001
:102730000201B83D02D012EF1EF0B851010A0001AB
:102740000AE0030AD8B4D6EF1DF0010AD8B4F3EFBB
:102750001DF010EF1EF00201BB51100A000145E010
:10276000270AD8B453D1030AD8B486D2710AD8B490
:1027700060D3450AD8B47ED3300AD8B499D3720A4C
:10278000D8B404EF18F0120AD8B427EF18F0020AF0
:10279000D8B488EF18F0010AD8B4A7EF1AF0050AE8
:1027A000D8B454EF1BF00E0AD8B4B4EF1BF0380ABB
:1027B000D8B4E2EF1BF0520AD8B415EF1CF0570A58
:1027C000D8B451EF1CF0020AD8B487EF1CF02F0ADE
:1027D000D8B4BDEF1CF0380AD8B4EFEF1CF0190ADA
:1027E000D8B43BEF1DF0BAEF1DF020A6F1D0575042
:1027F000555CD8A090D004E15450565CD8B08BD032
:1028000063A16CD00201BC51C8081DE2030E030194
:10281000866F900E856F640EF66E060EF76E0001E1
:102820005CEC0BF0900E0301855DD66FFE0E060189
:10283000C56FD6C3C6F6030EC86F900EC76F0001F2
:10284000E8EC0BF04AD000017DA302D021B029D0E2
:10285000030E0301866F900E856F7C0EF66E060EDA
:10286000F76E00015CEC0BF0900E0301855DD66FF6
:10287000120E0601C56FD6C3C6F6030EC86F900EC2
:10288000C76F0001E8EC0BF0A20E0601C56FBCC2D9
:10289000C6F6020EC86FBD0EC76F000149EC0DF001
:1028A0001CD0030E0301866F900E856F920EF66E9C
:1028B000060EF76E00015CEC0BF0900E0301855DD7
:1028C000D66F440E0601C56FD6C3C6F6030EC86F99
:1028D000900EC76F0001E8EC0BF01CD0030E030153
:1028E000866F900E856FA40EF66E060EF76E0001D1
:1028F0005CEC0BF0900E0301855DD66F330E060184
:10290000C56FD6C3C6F6030EC86F900EC76F000121
:10291000E8EC0BF05CD0C00ED88058540601C56FAF
:10292000270E5954C66F090E5A54C76F000E5B54D8
:10293000C86FD892DC6FC7C6DBF6C6C6DAF6C5C666
:10294000D9F6E06BDF6B030EDE6FE80EDD6F000182
:1029500013EC0EF003C0C8F602C0C7F601C0C6F6FD
:1029600000C0C5F6030E0301866F900E856FC00E82
:10297000F66E060EF76E050E0601CD6F00015DECDA
:102980000EF0410EE96EC8C6D0F6C7C6CFF6C6C671
:10299000CEF6C5C6CDF671EC0EF0C80EF66E060E7C
:1029A000F76E1F0E0601CD6F00015DEC0EF0900E6C
:1029B0000301855DD66F180E0601C56FD6C3C6F636
:1029C000030EC86F900EC76F0001E8EC0BF01CD02F
:1029D000030E0301866F900E856FE80EF66E060EED
:1029E000F76E00015CEC0BF0900E0301855DD66F75
:1029F000410E0601C56FD6C3C6F6030EC86F900E12
:102A0000C76F0001E8EC0BF0D5EF1DF020A016D148
:102A10006751655DD8A0AFD004E16451665DD8B060
:102A2000AAD00201BC511B081DE2030E0301866FF0
:102A3000900E856F0C0EF66E070EF76E00015CECC3
:102A40000BF0900E0301855DD66FFE0E0601C56F7B
:102A5000D6C3C6F6030EC86F900EC76F0001E8EC30
:102A60000BF088D00001605347E1030E0301866F2D
:102A7000900E856F240EF66E070EF76E00015CEC6B
:102A80000BF0900E0301855DD66F380E0601C56F01
:102A9000D6C3C6F6030EC86F900EC76F0001E8ECF0
:102AA0000BF063A10CD0BCC2C5F6020E0601C76FC5
:102AB000BD0EC66F0001D0EC0EF04D861CD0030E8B
:102AC0000301866F900E856F3A0EF66E070EF76E55
:102AD00000015CEC0BF0900E0301855DD66F330EA8
:102AE0000601C56FD6C3C6F6030EC86F900EC76F3A
:102AF0000001E8EC0BF03ED0602D1DD0030E030169
:102B0000866F900E856F560EF66E070EF76E0001FB
:102B10005CEC0BF0900E0301855DD66F470E06014D
:102B2000C56FD6C3C6F6030EC86F900EC76F0001FF
:102B3000E8EC0BF01FD0605102081CE1030E03010A
:102B4000866F900E856F6E0EF66E070EF76E0001A3
:102B50005CEC0BF0900E0301855DD66F470E06010D
:102B6000C56FD6C3C6F6030EC86F900EC76F0001BF
:102B7000E8EC0BF062D0C00ED88068550601C56F36
:102B8000270E000169550601C66F090E00016A553E
:102B90000601C76F000E00016B550601C86FD89281
:102BA000DC6FC7C6DBF6C6C6DAF6C5C6D9F6E06B7B
:102BB000DF6B030EDE6FE80EDD6F000113EC0EF02D
:102BC00003C0C8F602C0C7F601C0C6F600C0C5F60D
:102BD000030E0301866F900E856F860EF66E070E4C
:102BE000F76E050E0601CD6F00015DEC0EF0410E93
:102BF000E96EC8C6D0F6C7C6CFF6C6C6CEF6C5C6FD
:102C0000CDF671EC0EF08E0EF66E070EF76E1E0E00
:102C10000601CD6F00015DEC0EF0900E0301855DA5
:102C2000D66F400E0601C56FD6C3C6F6030EC86F39
:102C3000900EC76F0001E8EC0BF01CD0030E0301EF
:102C4000866F900E856FAE0EF66E070EF76E000162
:102C50005CEC0BF0900E0301855DD66F410E060112
:102C6000C56FD6C3C6F6030EC86F900EC76F0001BE
:102C7000E8EC0BF0D5EF1DF020A2BDD00201BC5155
:102C800006081DE0030E0301866F900E856FC80EC7
:102C9000F66E070EF76E00015CEC0BF0900E030170
:102CA000855DD66FFE0E0601C56FD6C3C6F6030E50
:102CB000C86F900EC76F0001E8EC0BF09BD00001CD
:102CC00060535AE1030E0301866F900E856FE00E8C
:102CD000F66E070EF76E00015CEC0BF0900E030130
:102CE000855DD66F350E0601C56FD6C3C6F6030ED9
:102CF000C86F900EC76F0001E8EC0BF063A11FD006
:102D0000BDC202F5BEC201F5BFC206F5C0C205F5DF
:102D1000C1C204F5C2C203F50601C56B02C5C7F600
:102D200001C5C6F606C5CBF605C5CAF604C5C9F683
:102D300003C5C8F6000110EC0FF04D861CD0030E41
:102D40000301866F900E856FF60EF66E070EF76E16
:102D500000015CEC0BF0900E0301855DD66F330E25
:102D60000601C56FD6C3C6F6030EC86F900EC76FB7
:102D70000001E8EC0BF03ED0602D1DD0030E0301E6
:102D8000866F900E856F120EF66E080EF76E0001BC
:102D90005CEC0BF0900E0301855DD66F470E0601CB
:102DA000C56FD6C3C6F6030EC86F900EC76F00017D
:102DB000E8EC0BF01FD0605102081CE1030E030188
:102DC000866F900E856F2A0EF66E080EF76E000164
:102DD0005CEC0BF0900E0301855DD66F470E06018B
:102DE000C56FD6C3C6F6030EC86F900EC76F00013D
:102DF000E8EC0BF01CD0030E0301866F900E856F7C
:102E0000420EF66E080EF76E00015CEC0BF0900EB1
:102E10000301855DD66F410E0601C56FD6C3C6F6A8
:102E2000030EC86F900EC76F0001E8EC0BF0D5EFF2
:102E30001DF0030E0301866F900E856F5C0EF66E1B
:102E4000080EF76E00015CEC0BF0900E0301855D3F
:102E5000D66F460E0601C56FD6C3C6F6030EC86F01
:102E6000900EC76F0001E8EC0BF05F6A5E6A606B62
:102E7000D5EF1DF0030E0301866F900E856F860E51
:102E8000F66E080EF76E00015CEC0BF0900E03017D
:102E9000855DD66F010E0601C56FD6C3C6F6030E5B
:102EA000C86F900EC76F0001E8EC0BF0D5EF1DF076
:102EB00020AA8CD063A16DD04DA24AD00401D66B5C
:102EC0000501076B010191510501075D2CE2036AC1
:102ED0000751920FE96E010E0320EA6EEFCFD9F78A
:102EE000050E0301866F080E856F370E0701DA6F36
:102EF00000016CEC0BF00401D651D62B036AD70FFE
:102F0000E96E030E0320EA6E08C5EFFFD651D62BFB
:102F1000036AD70FE96E030E0320EA6E09C5EFFFBF
:102F20000501072BCFD7310E0601C56FD6C4C6F6F3
:102F3000030EC86FD70EC76F0001E8EC0BF0736B80
:102F4000726B716B706B4D920101916B1ED0000121
:102F5000030E0301866F900E856F8E0EF66E080EBF
:102F6000F76E00015CEC0BF0900E0301855DD66FEF
:102F7000290E0601C56FD6C3C6F6030EC86F900EA4
:102F8000C76F0001E8EC0BF00101000157EC0FF0F6
:102F90001CD0030E0301866F900E856FA80EF66E8F
:102FA000080EF76E00015CEC0BF0900E0301855DDE
:102FB000D66F330E0601C56FD6C3C6F6030EC86FB3
:102FC000900EC76F0001E8EC0BF01CD0030E03015C
:102FD000866F900E856FC40EF66E080EF76E0001B8
:102FE0005CEC0BF0900E0301855DD66F410E06017F
:102FF000C56FD6C3C6F6030EC86F900EC76F00012B
:10300000E8EC0BF0D5EF1DF0030E0301866F900E78
:10301000856FE20EF66E080EF76E00015CEC0BF0A9
:10302000900E0301855DD66F430E0601C56FD6C3B2
:10303000C6F6030EC86F900EC76F0001E8EC0BF0E8
:10304000856B846B836B826B7D93D5EF1DF00201E2
:10305000A65105081EE1030E0301866F900E856FD1
:103060000A0EF66E090EF76E00015CEC0BF0900E86
:103070000301855DD66F510E0601C56FD6C3C6F636
:10308000030EC86F900EC76F0001E8EC0BF03ED046
:103090000201A65103081EE1030E0301866F900E84
:1030A000856F360EF66E090EF76E00015CEC0BF0C4
:1030B000900E0301855DD66F510E0601C56FD6C314
:1030C000C6F6030EC86F900EC76F0001E8EC0BF058
:1030D0001DD00201030E0301866F900E856F5C0EFA
:1030E000F66E090EF76E00015CEC0BF0900E03011A
:1030F000855DD66F510E0601C56FD6C3C6F6030EA9
:10310000C86F900EC76F0001E8EC0BF0D5EF1DF013
:1031100020AC00D20201A6510508D8A4DED1BC51D2
:103120000808D8A411D1BDC20DF5BEC20CF5BFC2AE
:103130000BF5C0C20AF5C1C211F5C2C210F5C3C277
:103140000FF5C4C20EF505010A5102019D5D23E190
:1031500005010B5102019E5D1EE105010C510201AA
:103160009F5D19E105010D510201A05D14E105010A
:103170000E510201995D0FE105010F5102019A5DA7
:103180000AE10501105102019B5D05E105011151A4
:1031900002019C5D10E00DC5A0F20CC59FF20BC5AD
:1031A0009EF20AC59DF211C59CF210C59BF20FC597
:1031B0009AF20EC599F2D892A0C2DCF69FC2DBF655
:1031C0009EC2DAF69DC2D9F60601E06BDF6B030EF4
:1031D000DE6FE80EDD6F000113EC0EF003C0C8F6E1
:1031E00002C0C7F601C0C6F600C0C5F6D8929CC2A0
:1031F000DCF69BC2DBF69AC2DAF699C2D9F6060172
:10320000E06BDF6B030EDE6FE80EDD6F000113EC89
:103210000EF003C0CCF602C0CBF601C0CAF600C067
:10322000C9F6030E0301866F900E856F7C0EF66E55
:10323000090EF76E2D0E0601CD6F00015DEC0EF04C
:10324000410EE96EC8C6D0F6C7C6CFF6C6C6CEF6E2
:10325000C5C6CDF671EC0EF0AC0EF66E090EF76E2B
:103260000A0E0601CD6F00015DEC0EF0410EE96E15
:10327000CCC6D0F6CBC6CFF6CAC6CEF6C9C6CDF6FA
:1032800071EC0EF0B90EF66E090EF76E080E06011F
:10329000CD6F00015DEC0EF0900E0301855DD66FE1
:1032A000540E0601C56FD6C3C6F6030EC86F900E46
:1032B000C76F0001E8EC0BF002019881000163A1E7
:1032C00041D0030E0301866F900E856FC20EF66E1D
:1032D000090EF76E0A0E0601CD6F00015DEC0EF0CF
:1032E000410EE96EA0C2D0F69FC2CFF69EC2CEF6C6
:1032F0009DC2CDF671EC0EF0200E0701DB6F0001D0
:103300004BEC0BF0410EE96E9CC2D0F69BC2CFF69F
:103310009AC2CEF699C2CDF671EC0EF0210E0701DD
:10332000DB6F00014BEC0BF0900E0301855DD66F57
:10333000D6C3C5F6030E0601C76F900EC66F000117
:10334000D0EC0EF0C8D00201D892A0C2DCF69FC229
:10335000DBF69EC2DAF69DC2D9F60601E06BDF6BA2
:10336000030EDE6FE80EDD6F000113EC0EF003C0FC
:10337000C8F602C0C7F601C0C6F600C0C5F6D892AE
:103380009CC2DCF69BC2DBF69AC2DAF699C2D9F689
:103390000601E06BDF6B030EDE6FE80EDD6F0001F0
:1033A00013EC0EF003C0CCF602C0CBF601C0CAF697
:1033B00000C0C9F6030E0301866F900E856FD60E0E
:1033C000F66E090EF76E2D0E0601CD6F00015DEC55
:1033D0000EF0410EE96EC8C6D0F6C7C6CFF6C6C617
:1033E000CEF6C5C6CDF671EC0EF0060EF66E0A0EE0
:1033F000F76E0A0E0601CD6F00015DEC0EF0410E76
:10340000E96ECCC6D0F6CBC6CFF6CAC6CEF6C9C6D4
:10341000CDF671EC0EF0130EF66E0A0EF76E080E76
:103420000601CD6F00015DEC0EF0900E0301855D8D
:10343000D66F540E0601C56FD6C3C6F6030EC86F0D
:10344000900EC76F0001E8EC0BF0020198810001BB
:1034500063A141D0030E0301866F900E856F1C0E91
:10346000F66E0A0EF76E0A0E0601CD6F00015DECD6
:103470000EF0410EE96EA0C2D0F69FC2CFF69EC2FA
:10348000CEF69DC2CDF671EC0EF0200E0701DB6F7B
:1034900000014BEC0BF0410EE96E9CC2D0F69BC2D2
:1034A000CFF69AC2CEF699C2CDF671EC0EF0210E8F
:1034B0000701DB6F00014BEC0BF0900E0301855D03
:1034C000D66FD6C3C5F6030E0601C76F900EC66F42
:1034D0000001D0EC0EF01DD00201030E0301866F37
:1034E000900E856F300EF66E0A0EF76E00015CECE2
:1034F0000BF0900E0301855DD66F510E0601C56F6E
:10350000D6C3C6F6030EC86F900EC76F0001E8EC75
:103510000BF01CD0030E0301866F900E856F560EC4
:10352000F66E0A0EF76E00015CEC0BF0900E0301D4
:10353000855DD66F410E0601C56FD6C3C6F6030E74
:10354000C86F900EC76F0001E8EC0BF02ED320ACD3
:103550008CD00201A651030869E1BC2D66D0BD5193
:10356000010863E3030E0301866F900E856F820EE0
:10357000F66E0A0EF76E1A0E0601CD6F00015DECB5
:103580000EF0BDC2D9F71B0E0701DA6F0001A5ECE2
:103590000BF09E0EF66E0A0EF76E060E0601CD6F4C
:1035A00000015DEC0EF0900E0301855DD66F550EA7
:1035B0000601C56FD6C3C6F6030EC86F900EC76F5F
:1035C0000001E8EC0BF0BDC2C5F675EC0FF063A18D
:1035D0002BD0030E0301866F900E856FA60EF66E3C
:1035E0000A0EF76E090E0601CD6F00015DEC0EF0BC
:1035F000BDC2D9F71B0E0701DA6F0001A5EC0BF075
:10360000210E0701DB6F00014BEC0BF0900E030164
:10361000855DD66FD6C3C5F6030E0601C76F900E43
:10362000C66F0001D0EC0EF002011DD0030E0301A5
:10363000866F900E856FB40EF66E0A0EF76E00015F
:103640005CEC0BF0900E0301855DD66F510E060108
:10365000C56FD6C3C6F6030EC86F900EC76F0001C4
:10366000E8EC0BF002011ED00001030E0301866F8F
:10367000900E856FE00EF66E0A0EF76E00015CECA0
:103680000BF0900E0301855DD66F410E0601C56FEC
:10369000D6C3C6F6030EC86F900EC76F0001E8ECE4
:1036A0000BF00201000181D2020198B102D0A5A164
:1036B0003ED0030E0301866F900E856F060EF66EE8
:1036C0000B0EF76E00015CEC0BF0900E0301855DB4
:1036D000D66F570E0601C56FD6C3C6F6030EC86F68
:1036E000900EC76F0001E8EC0BF002019891A591D4
:1036F000000163A11AD0030E0301866F900E856F3F
:10370000220EF66E0B0EF76E00015CEC0BF0900EC5
:103710000301855DD66FD6C3C5F6030E0601C76FDC
:10372000900EC66F0001D0EC0EF01DD00201030E0A
:103730000301866F900E856F340EF66E0B0EF76EDA
:1037400000015CEC0BF0900E0301855DD66F570E07
:103750000601C56FD6C3C6F6030EC86F900EC76FBD
:103760000001E8EC0BF021D2000E0201A7B1010E1E
:103770000601C56F030E0301866F900E856F600E04
:10378000F66E0B0EF76E100E0601CD6F00015DECAC
:103790000EF0C5C6D9F71B0E0701DA6F0001A5ECC4
:1037A0000BF0900E0301855DD66F590E0601C56FB3
:1037B000D6C3C6F6030EC86F900EC76F0001E8ECC3
:1037C0000BF0F3D1030E0301866F900E856F740E1C
:1037D000F66E0B0EF76E00015CEC0BF0900E030121
:1037E000855DD66F620E0601C56FD6C3C6F6030EA1
:1037F000C86F900EC76F0001E8EC0BF00501136B6A
:10380000126B13530FE1125113080CE3640E0601FF
:10381000C76F0001E4EC07F004000501122BD8B4D7
:10382000132BEFD7FF000001C0D163A11DD0030E01
:103830000301866F900E856FA40EF66E0B0EF76E69
:1038400000015CEC0BF0900E0301855DD66F330E2A
:103850000601C56FD6C3C6F6030EC86F900EC76FBC
:103860000001E8EC0BF01CD0030E0301866F900EF4
:10387000856FBC0EF66E0B0EF76E00015CEC0BF064
:10388000900E0301855DD66F330E0601C56FD6C35A
:10389000C6F6030EC86F900EC76F0001E8EC0BF080
:1038A00084D1030E0301866F900E856FD80EF66EDD
:1038B0000B0EF76E120E0601CD6F00015DEC0EF0DF
:1038C00022C0D9F71B0E0701DA6F0001A5EC0BF03F
:1038D0002E0E0701DB6F00014BEC0BF023C0D9F774
:1038E0001B0E0701DA6F0001A5EC0BF0900E03012F
:1038F000855DD66F660E0601C56FD6C3C6F6030E8C
:10390000C86F900EC76F0001E8EC0BF04ED1030EAC
:103910000301866F900E856FF00EF66E0B0EF76E3C
:10392000120E0601CD6F00015DEC0EF024C0D9F738
:103930001B0E0701DA6F0001A5EC0BF02E0E07013C
:10394000DB6F00014BEC0BF025C0D9F71B0E070114
:10395000DA6F0001A5EC0BF0900E0301855DD66FC8
:10396000680E0601C56FD6C3C6F6030EC86F900E6B
:10397000C76F0001E8EC0BF018D10401ECA312D0E2
:10398000030E0301866F900E856F080EF66E0C0E07
:10399000F76E00015CEC0BF0900E0301855DD66FB5
:1039A00011D00401030E0301866F900E856F140E73
:1039B000F66E0C0EF76E00015CEC0BF0900E03013E
:1039C000855DD66F490E0601C56FD6C3C6F6030ED8
:1039D000C86F900EC76F0001E8EC0BF0E6D021A293
:1039E0002DD0000E4DAA010E0601C56F030E030176
:1039F000866F900E856F220EF66E0C0EF76E0D0E12
:103A00000601CD6F00015DEC0EF0C5C6D9F71B0EA7
:103A10000701DA6F0001A5EC0BF0900E0301855D44
:103A2000D66F710E0601C56FD6C3C6F6030EC86FFA
:103A3000900EC76F0001E8EC0BF01CD0030E0301E1
:103A4000866F900E856F320EF66E0C0EF76E0001CB
:103A50005CEC0BF0900E0301855DD66F410E060104
:103A6000C56FD6C3C6F6030EC86F900EC76F0001B0
:103A7000E8EC0BF09AD0200EF86EF76AF66A050EA5
:103A8000EA6E140EE96E0601C66B080EC56F0001E2
:103A900081EC0FF0030E0301866F900E856F540EBC
:103AA000F66E0C0EF76E0B0E0601CD6F00015DEC8D
:103AB0000EF08FC3D9F7370E0701DA6F00016CECF7
:103AC0000BF08EC3D9F7370E0701DA6F00016CECEB
:103AD0000BF01BC5D9F7370E0701DA6F00016CEC4C
:103AE0000BF01AC5D9F7370E0701DA6F00016CEC3D
:103AF0000BF019C5D9F7370E0701DA6F00016CEC2E
:103B00000BF018C5D9F7370E0701DA6F00016CEC1E
:103B10000BF017C5D9F7370E0701DA6F00016CEC0F
:103B20000BF016C5D9F7370E0701DA6F00016CEC00
:103B30000BF015C5D9F7370E0701DA6F00016CECF1
:103B40000BF014C5D9F7370E0701DA6F00016CECE2
:103B50000BF0900E0301855DD66F710E0601C56FE7
:103B6000D6C3C6F6030EC86F900EC76F0001E8EC0F
:103B70000BF01BD0030E0301866F900E856F740E41
:103B8000F66E0C0EF76E00015CEC0BF0900E03016C
:103B9000855DD66F0601C569D6C3C6F6030EC86F2C
:103BA000900EC76F0001E8EC0BF03AD0030E030152
:103BB000866F900E856F8A0EF66E0C0EF76E000102
:103BC0005CEC0BF0900E0301855DD66F080E0601CC
:103BD000C56FD6C3C6F6030EC86F900EC76F00013F
:103BE000E8EC0BF01DD0030E0301866F900E856F7D
:103BF000980EF66E0C0EF76E00015CEC0BF0900E5A
:103C00000301855DD66F090E0601C56FD6C3C6F6E2
:103C1000030EC86F900EC76F0001E8EC0BF000D0E8
:103C20000201B86900016251020854E2FF0A03E18F
:103C30006151E8084FE263B104D090EF0FF0929029
:103C40008970006A63B1008263510018020B40E082
:103C500063A11FD0030E0301866F900E856FAE0E19
:103C6000F66E0C0EF76E00015CEC0BF0900E03018B
:103C7000855DD66F330E0601C56FD6C3C6F6030E3B
:103C8000C86F900EC76F0001E8EC0BF0929089802E
:103C90001CD0030E0301866F900E856FC60EF66E64
:103CA0000C0EF76E00015CEC0BF0900E0301855DCD
:103CB000D66F330E0601C56FD6C3C6F6030EC86FA6
:103CC000900EC76F0001E8EC0BF0639363B1638360
:103CD000626B616B63A5B4EF31F09251010A0CE0A5
:103CE000030A18E0230A60E0030AD8B4DAD0010A14
:103CF000D8B417D1B3EF31F0100E0601C66F370EEE
:103D0000C56FC76B010EC86F000194EF0FF06381A0
:103D1000B3EF31F04DA643D0602D1DD0030E03014B
:103D2000866F900E856FE20EF66E0C0EF76E000138
:103D30005CEC0BF0900E0301855DD66F390E060129
:103D4000C56FD6C3C6F6030EC86F900EC76F0001CD
:103D5000E8EC0BF01FD0605102081CE1030E0301D8
:103D6000866F900E856FF40EF66E0C0EF76E0001E6
:103D70005CEC0BF0900E0301855DD66F360E0601EC
:103D8000C56FD6C3C6F6030EC86F900EC76F00018D
:103D9000E8EC0BF04D965F6A5E6A606B03D05F6A79
:103DA0005E6A606BB3EF31F0D5EF0FF0040E0601E1
:103DB000C66FD90EC56F0001F3EF0FF093C091F1FC
:103DC00005011C6B0001935105011C5D1DE2036A96
:103DD0001C51920F016E010E0322060103C0C6F6AC
:103DE000036A05011C51940FE96E000E0320EA6E70
:103DF000EFCFC7F60601C6C6EAFF01C0E9FFC7C696
:103E0000EFFF05011C2BDED74D8220AE42D004010E
:103E1000D66B05011D6B0001935105011D5D2CE260
:103E2000036A1D51940FE96E000E0320EA6EEFCF76
:103E3000D9F7050E0301866F1E0E856F370E070139
:103E4000DA6F00016CEC0BF00401D651D62B036A3B
:103E5000D70FE96E030E0320EA6E1EC5EFFFD651A1
:103E6000D62B036AD70FE96E030E0320EA6E1FC537
:103E7000EFFF05011D2BCFD7310E0601C56FD6C44C
:103E8000C6F6030EC86FD70EC76F0001E8EC0BF043
:103E90000501000174917C6B7B6B7A6B796BB3EFDE
:103EA00031F04F90536A526A942D1DD0030E0301D6
:103EB000866F900E856F060EF66E0D0EF76E000182
:103EC0005CEC0BF0900E0301855DD66F130E0601BE
:103ED000C56FD6C3C6F6030EC86F900EC76F00013C
:103EE000E8EC0BF01CD0030E0301866F900E856F7B
:103EF000180EF66E0D0EF76E00015CEC0BF0900ED6
:103F00000301855DD66F160E0601C56FD6C3C6F6D2
:103F1000030EC86F900EC76F0001E8EC0BF0B3EF13
:103F200031F0945332E1955103082FE19651410845
:103F30002CE19751430829E198514B0826E199510A
:103F4000040823E1030E0301866F900E856F2C0E8B
:103F5000F66E0D0EF76E00015CEC0BF0900E030197
:103F6000855DD66F150E0601C56FD6C3C6F6030E66
:103F7000C86F900EC76F0001E8EC0BF07D93856B66
:103F8000846B836B826BB2EF31F00601C66B940ECB
:103F9000C56F000192EF10F00152D8B4B2EF31F0CA
:103FA0009451A10AD8B4EBD0020AD8B425D1070A9B
:103FB000D8B443D1010AD8B454D1030AD8B48AD1B1
:103FC000010AD8B4ADD10F0AD8B4C9D1010AD8B406
:103FD000DAD1030AD8B417D2010AD8B426D2070A14
:103FE000D8B463D2010AD8B472D2030AD8B4AFD21B
:103FF000010AD8B4BED20F0AD8B4FBD2100AD8B482
:104000000AD3010AD8B426D3030AD8B437D3010A95
:10401000D8B455D3070AD8B468D3010AD8B4B5EFD9
:1040200023F0030AD8B4C7EF23F0010AD8B407EF8E
:1040300024F0770AD8B419EF24F0010AD8B45CEF61
:1040400024F0030AD8B46CEF24F0010AD8B4CDEF01
:1040500024F0070AD8B40BEF25F0010AD8B444EFD6
:1040600025F0020AD8B46AEF25F0010AD8B4E7EFC8
:1040700025F00F0AD8B4FDEF25F0010AD8B4A1EF5E
:1040800028F0030AD8B409EF29F0060AD8B44CEF97
:1040900029F01D0AD8B45EEF29F0010AD8B497EFD1
:1040A00029F0030AD8B4BDEF29F0010AD8B408EF0B
:1040B0002AF0040AD8B41EEF2AF0030AD8B43CEF61
:1040C0002AF0010AD8B44EEF2AF0030AD8B460EF00
:1040D0002AF00F0AD8B494EF2AF0390AD8B4C9EFFD
:1040E0002AF0010AD8B402EF2BF0030AD8B428EF63
:1040F0002BF0010AD8B46BEF2BF0070AD8B47DEF90
:104100002BF0010AD8B4C0EF2BF03D0AD8B4D2EF9F
:104110002BF04C0AD8B4F0EF2EF0140AD8B401EF0B
:1041200030F0010AD8B441EF30F0030AD8B451EFAF
:1041300030F0010AD8B491EF30F0050AD8B4A1EFFD
:1041400030F0010AD8B4C0EF30F0030AD8B4D4EF8D
:1041500030F0010AD8B4F3EF30F0150AD8B407EF05
:1041600031F0010AD8B447EF31F0030AD8B457EF61
:1041700031F0010AD8B497EF31F0A7EF31F020A465
:104180001DD0110E0601C56F95C0C6F6C86B960E00
:10419000C76F0001E8EC0BF020A80FD0A10E0501BD
:1041A000206FFB0E0601C56F010EC66F050EC86FAE
:1041B000200EC76F000149EC0DF01CD0030E030167
:1041C000866F900E856F3E0EF66E0D0EF76E000137
:1041D0005CEC0BF0900E0301855DD66F170E0601A7
:1041E000C56FD6C3C6F6030EC86F900EC76F000129
:1041F000E8EC0BF0B1EF31F0955102081CE196C0EC
:1042000022F597C021F522C551F021C550F050C0CC
:1042100023F5050151C024F50501A40E0601C56F63
:10422000020EC66F050EC86F230EC76F000149EC62
:104230000DF0F6EC10F0B1EF31F050C025F50501AE
:1042400051C026F50501A40E0601C56F020EC66F0A
:10425000050EC86F250EC76F000149EC0DF0B1EFD8
:1042600031F09551040834E196C02AF597C029F53C
:1042700098C028F599C027F52AC581F029C580F096
:1042800028C57FF027C57EF081C0C9F680C0C8F67A
:104290007FC0C7F67EC02BF505017FC02CF580C01E
:1042A000C7F681C0C8F6050180C02DF581C0C7F6EC
:1042B000050181C02EF50501A60E0601C56F040E8D
:1042C000C66F050EC86F2B0EC76F000149EC0DF0CD
:1042D000B1EF31F081C0C9F680C0C8F67FC0C7F623
:1042E0007EC02FF505017FC030F580C0C7F681C0C4
:1042F000C8F6050180C031F581C0C7F6050181C04F
:1043000032F50501A60E0601C56F040EC66F050E37
:10431000C86F2F0EC76F000149EC0DF0B1EF31F0FF
:10432000955102081AE196C034F597C033F534C5AB
:1043300055F033C554F054C035F5050155C036F578
:104340000501A80E0601C56F020EC66F050EC86FE7
:10435000350EC76F000149EC0DF0B1EF31F054C0DC
:1043600037F5050155C038F50501A80E0601C56FE2
:10437000020EC66F050EC86F370EC76F000149ECFD
:104380000DF0B1EF31F0955104081DE1965125086B
:104390001AE19751330817E19851410814E19951F6
:1043A000490811E12086010E0501396FAA0E0601A8
:1043B000C56F010EC66F050EC86F390EC76F0001BD
:1043C00049EC0DF01ED0955104081BE196512508CB
:1043D00018E19751280815E19851310812E19951D7
:1043E00034080FE1209605013A6BAA0E0601C56F4D
:1043F000010EC66F050EC86F3A0EC76F000149EC7B
:104400000DF0B1EF31F005013B6B20B63B2BAA0E4E
:104410000601C56F010EC66F050EC86F3B0EC76F54
:10442000000149EC0DF0B1EF31F0955104081DE1A8
:10443000965125081AE19751330817E19851410820
:1044400014E19951490811E12084010E05013C6FE6
:10445000AC0E0601C56F010EC66F050EC86F3C0E8F
:10446000C76F000149EC0DF01ED0955104081BE107
:104470009651250818E19751280815E198513108FF
:1044800012E1995134080FE1209405013D6BAC0E07
:104490000601C56F010EC66F050EC86F3D0EC76FD2
:1044A000000149EC0DF0B1EF31F005013E6B20B495
:1044B0003E2BAC0E0601C56F010EC66F050EC86F10
:1044C0003E0EC76F000149EC0DF0B1EF31F0955190
:1044D00004081DE1965125081AE19751330817E1A8
:1044E0009851410814E19951490811E12088010EC1
:1044F00005013F6FAE0E0601C56F010EC66F050EBA
:10450000C86F3F0EC76F000149EC0DF01ED09551EA
:1045100004081BE19651250818E19751280815E178
:104520009851310812E1995134080FE120980501A2
:10453000406BAE0E0601C56F010EC66F050EC86F4B
:10454000400EC76F000149EC0DF0B1EF31F00501ED
:10455000416B20B8412BAE0E0601C56F010EC66F30
:10456000050EC86F410EC76F000149EC0DF0B1EFA9
:1045700031F0955104081DE1965125081AE1975133
:10458000330817E19851410814E19951490811E1A4
:104590002180010E0501426FA00E0601C56F010EBC
:1045A000C66F050EC86F420EC76F000149EC0DF0D3
:1045B0001ED0955104081BE19651250818E197512A
:1045C000280815E19851310812E1995134080FE19A
:1045D00021900501436BA00E0601C56F010EC66F49
:1045E000050EC86F430EC76F000149EC0DF0B1EF27
:1045F00031F00501446B21B0442BA00E0601C56FBC
:10460000010EC66F050EC86F440EC76F000149EC5E
:104610000DF0B1EF31F0955102081AE196C046F560
:1046200097C045F546C55DF045C55CF05CC047F5F3
:1046300005015DC048F50501B10E0601C56F020E0A
:10464000C66F050EC86F470EC76F000149EC0DF02D
:10465000B1EF31F05CC049F505015DC04AF50501D7
:10466000B10E0601C56F040EC66F050EC86F490E68
:10467000C76F000149EC0DF0B1EF31F09551020820
:104680001CE196C04EF597C04DF54EC565F04DC581
:1046900064F065C0C6F664C04FF5050165C050F50D
:1046A0000501B30E0601C56F020EC66F050EC86F79
:1046B0004F0EC76F000149EC0DF0B1EF31F065C04E
:1046C000C6F664C051F5050165C052F50501B30E8B
:1046D0000601C56F020EC66F050EC86F510EC76F7B
:1046E000000149EC0DF0B1EF31F0955104081DE1E6
:1046F000965125081AE19751330817E1985141085E
:1047000014E19951490811E12080010E0501536F10
:10471000B50E0601C56F010EC66F050EC86F530EAC
:10472000C76F000149EC0DF01ED0955104081BE144
:104730009651250818E19751280815E1985131083C
:1047400012E1995134080FE120900501546BB50E28
:104750000601C56F010EC66F050EC86F540EC76FF8
:10476000000149EC0DF0B1EF31F00501556B20B0BF
:10477000552BB50E0601C56F010EC66F050EC86F2D
:10478000550EC76F000149EC0DF0B1EF31F09551B6
:1047900004081DE1965125081AE19751330817E1E5
:1047A0009851410814E19951490811E12082010E04
:1047B0000501566FB70E0601C56F010EC66F050ED7
:1047C000C86F560EC76F000149EC0DF01ED0955111
:1047D00004081BE19651250818E19751280815E1B6
:1047E0009851310812E1995134080FE120920501E6
:1047F000576BB70E0601C56F010EC66F050EC86F69
:10480000570EC76F000149EC0DF0B1EF31F0050113
:10481000586B20B2582BB70E0601C56F010EC66F3C
:10482000050EC86F580EC76F000149EC0DF0B1EFCF
:1048300031F0955104081EE1965125081BE197516E
:10484000330818E19851410815E19951490812E1DE
:10485000030E0201A66FA6C259F5C10E0601C56F6F
:10486000010EC66F050EC86F590EC76F000149ECE7
:104870000DF020D0955104081DE1965125081AE14C
:104880009751280817E19851310814E199513408DB
:1048900011E1050E0201A66FA6C25AF5C10E06016E
:1048A000C56F010EC66F050EC86F5A0EC76F0001A7
:1048B00049EC0DF0B1EF31F0A6C25BF5C10E060177
:1048C000C56F010EC66F050EC86F5B0EC76F000186
:1048D00049EC0DF0B1EF31F0955108085CE196C05C
:1048E0005FF597C05EF598C05DF599C05CF59AC01C
:1048F00063F59BC062F59CC061F59DC060F563C522
:104900009CF262C59BF261C59AF260C599F25FC5DF
:10491000A0F25EC59FF25DC59EF25CC59DF2A0C28D
:10492000C9F69FC2C8F69EC2C7F69DC264F50501CE
:104930009EC265F59FC2C7F6A0C2C8F605019FC218
:1049400066F5A0C2C7F60501A0C267F505019CC2C5
:10495000C9F69BC2C8F69AC2C7F699C268F50501A6
:104960009AC269F59BC2C7F69CC2C8F605019BC2F4
:104970006AF59CC2C7F605019CC26BF50501C30E22
:104980000601C56F080EC66F050EC86F640EC76FAF
:10499000000149EC0DF0B1EF31F0A0C2C9F69FC2A1
:1049A000C8F69EC2C7F69DC26CF505019EC26DF5A4
:1049B0009FC2C7F6A0C2C8F605019FC26EF5A0C28D
:1049C000C7F60501A0C26FF505019CC2C9F69BC2DE
:1049D000C8F69AC2C7F699C270F505019AC271F578
:1049E0009BC2C7F69CC2C8F605019BC272F59CC269
:1049F000C7F605019CC273F50501C30E0601C56F1C
:104A0000080EC66F050EC86F6C0EC76F000149EC2B
:104A10000DF0B1EF31F09551040834E196C077F50F
:104A200097C076F598C075F599C074F577C5AEF264
:104A300076C5ADF275C5ACF274C5ABF2AEC2C9F6BF
:104A4000ADC2C8F6ACC2C7F6ABC278F50501ACC2C0
:104A500079F5ADC2C7F6AEC2C8F60501ADC27AF5AA
:104A6000AEC2C7F60501AEC27BF50501C50E060153
:104A7000C56F040EC66F050EC86F780EC76F0001B4
:104A800049EC0DF0B1EF31F0AEC2C9F6ADC2C8F6D7
:104A9000ACC2C7F6ABC27CF50501ACC27DF5ADC2B8
:104AA000C7F6AEC2C8F60501ADC27EF5AEC2C7F606
:104AB0000501AEC27FF50501C50E0601C56F040EE6
:104AC000C66F050EC86F7C0EC76F000149EC0DF074
:104AD000B1EF31F00201A6510308D8A468D000015B
:104AE0009551040811E1965125080EE197513308BC
:104AF0000BE19851410808E19951490805E1030E7D
:104B00000201A86F13D000019551040810E19651DD
:104B100025080DE1975128080AE19851310807E16D
:104B20009951340804E1040E0201A86F0001CCCFB2
:104B3000C5F60601C96BC86BC76BCCCFC6F60001C2
:104B40007FEC11F00501816B806B815303E1805193
:104B50006F0808E2815126080EE2FF0A03E1805146
:104B60000F0809E20001DBEC11F002C081F501C081
:104B700080F50501EAD781C5AAF280C5A9F2020134
:104B8000B381AAC2C6F6A9C282F50501AAC283F5FD
:104B90000501C90E0601C56F020EC66F050EC86F6E
:104BA000820EC76F000149EC0DF00FD00201A6C2C2
:104BB00084F5C10E0601C56F010EC66F050EC86FE4
:104BC000840EC76F000149EC0DF0B1EF31F0050123
:104BD000856B0201A7A103D00501852B0201C60E3A
:104BE0000601C56F010EC66F050EC86F850EC76F33
:104BF000000149EC0DF0B1EF31F00201B3A160D238
:104C0000000195510208D8A43DD296C087F597C0FF
:104C100086F50201A9510501865DD8A4FED10201E5
:104C2000AA510501875DD8A4F8D10201A851030853
:104C300007E0A851040804E0A8510508D8A4C9D188
:104C4000A6510308D8A4CFD0A851030855E1030EFC
:104C50000301866F900E856F660EF66E0D0EF76E71
:104C60001A0E0601CD6F00015DEC0EF0010E07017A
:104C7000D96F1B0EDA6F0001A5EC0BF0820EF66EF9
:104C80000D0EF76E0A0E0601CD6F00015DEC0EF001
:104C9000900E0301855DD66F550E0601C56FD6C314
:104CA000C6F6030EC86F900EC76F0001E8EC0BF05C
:104CB000010E0601C56F000175EC0FF063A11AD05B
:104CC000030E0301866F900E856F8E0EF66E0D0E2D
:104CD000F76E00015CEC0BF0900E0301855DD66F62
:104CE000D6C3C5F6030E0601C76F900EC66F00014E
:104CF000D0EC0EF076D00201A851040853E1030E67
:104D00000301866F900E856F9E0EF66E0D0EF76E88
:104D10001A0E0601CD6F00015DEC0EF00701D96B94
:104D20001B0EDA6F0001A5EC0BF0BA0EF66E0D0E3D
:104D3000F76E0A0E0601CD6F00015DEC0EF0900ECD
:104D40000301855DD66F550E0601C56FD6C3C6F645
:104D5000030EC86F900EC76F0001E8EC0BF0060160
:104D6000C56B000175EC0FF063A11AD0030E0301AF
:104D7000866F900E856FC60EF66E0D0EF76E0001F3
:104D80005CEC0BF0900E0301855DD66FD6C3C5F6C3
:104D9000030E0601C76F900EC66F0001D0EC0EF037
:104DA00020D00201A85105081DE1030E0301866F02
:104DB000900E856FD60EF66E0D0EF76E00015CEC50
:104DC0000BF0900E0301855DD66FCA0E0601C56F0C
:104DD000D6C3C6F6030EC86F900EC76F000149EC2C
:104DE0000DF00201F4D0A6510508D8A4F0D0A851C6
:104DF0000508D8A4C9D0D892A0C2DCF69FC2DBF6C1
:104E00009EC2DAF69DC2D9F60601E06BDF6B030E97
:104E1000DE6FE80EDD6F000113EC0EF003C0C8F684
:104E200002C0C7F601C0C6F600C0C5F6D8929CC243
:104E3000DCF69BC2DBF69AC2DAF699C2D9F6060115
:104E4000E06BDF6B030EDE6FE80EDD6F000113EC2D
:104E50000EF003C0CCF602C0CBF601C0CAF600C00B
:104E6000C9F6030E0301866F900E856F0E0EF66E67
:104E70000E0EF76E2D0E0601CD6F00015DEC0EF0EB
:104E8000410EE96EC8C6D0F6C7C6CFF6C6C6CEF686
:104E9000C5C6CDF671EC0EF03E0EF66E0E0EF76E38
:104EA0000A0E0601CD6F00015DEC0EF0410EE96EB9
:104EB000CCC6D0F6CBC6CFF6CAC6CEF6C9C6CDF69E
:104EC00071EC0EF04B0EF66E0E0EF76E0C0E060128
:104ED000CD6F00015DEC0EF0900E0301855DD66F85
:104EE000540E0601C56FD6C3C6F6030EC86F900EEA
:104EF000C76F0001E8EC0BF002019881000163A18B
:104F000041D0030E0301866F900E856F580EF66E2A
:104F10000E0EF76E0E0E0601CD6F00015DEC0EF069
:104F2000410EE96EA0C2D0F69FC2CFF69EC2CEF669
:104F30009DC2CDF671EC0EF0200E0701DB6F000173
:104F40004BEC0BF0410EE96E9CC2D0F69BC2CFF643
:104F50009AC2CEF699C2CDF671EC0EF0210E070181
:104F6000DB6F00014BEC0BF0900E0301855DD66FFB
:104F7000D6C3C5F6030E0601C76F900EC66F0001BB
:104F8000D0EC0EF023D00201A851030803E0A85191
:104F900004081DE1030E0301866F900E856F700EED
:104FA000F66E0E0EF76E00015CEC0BF0900E030136
:104FB000855DD66FCA0E0601C56FD6C3C6F6030E51
:104FC000C86F900EC76F000149EC0DF00201A86B8D
:104FD0001DD0030E0301866F900E856FA20EF66E34
:104FE0000E0EF76E00015CEC0BF0900E0301855D78
:104FF000D66FCA0E0601C56FD6C3C6F6030EC86FBC
:10500000900EC76F000149EC0DF00201B391270E1D
:10501000AA6F100EA96F34D00501030E0301866F2D
:10502000900E856FBC0EF66E0E0EF76E040E060126
:10503000CD6F00015DEC0EF0100EE96E87C5C6F66F
:1050400086C5C5F613EF12F0C30EF66E0E0EF76EA0
:105050000B0E0601CD6F00015DEC0EF0900E03010A
:10506000855DD66FCA0E0601C56FD6C3C6F6030EA0
:10507000C86F900EC76F000149EC0DF00201A86BDC
:105080001ED00001030E0301866F900E856FD00EB7
:10509000F66E0E0EF76E00015CEC0BF0900E030145
:1050A000855DD66FCA0E0601C56FD6C3C6F6030E60
:1050B000C86F900EC76F000149EC0DF002013ED0A1
:1050C000A8531FE0030E0301866F900E856FE00E5C
:1050D000F66E0E0EF76E00015CEC0BF0900E030105
:1050E000855DD66FCA0E0601C56FD6C3C6F6030E20
:1050F000C86F900EC76F000149EC0DF00201A86B5C
:105100001DD0030E0301866F900E856F040EF66EA0
:105110000F0EF76E00015CEC0BF0900E0301855D45
:10512000D66FCA0E0601C56FD6C3C6F6030EC86F8A
:10513000900EC76F000149EC0DF002010001B1EFC4
:1051400031F00201A651050854E10001955104080F
:1051500010E1965125080DE1975133080AE1985165
:10516000410807E19951490804E1050E0201A86FC1
:105170000001CCCFC5F60601C96BC86BC76BCCCF9D
:10518000C6F600017FEC11F00501896B886B89532D
:1051900003E188516F0808E2895126080EE2FF0AF0
:1051A00003E188510F0809E20001DBEC11F002C0B5
:1051B00089F501C088F50501EAD789C5AAF288C535
:1051C000A9F20201B381AAC2C6F6A9C28AF50501F5
:1051D000AAC28BF50501C90E0601C56F020EC66F86
:1051E000050EC86F8A0EC76F000149EC0DF00FD095
:1051F0000201A6C28CF5C10E0601C56F010EC66F75
:10520000050EC86F8C0EC76F000149EC0DF0B1EFB1
:1052100031F0955104081EE1965125081BE1975184
:10522000330818E19851410815E19951490812E1F4
:10523000208C05018D6B20BC8D2BCD0E0601C56F1A
:10524000010EC66F050EC86F8D0EC76F000149ECC9
:105250000DF020D0955104081DE1965125081AE162
:105260009751280817E19851310814E199513408F1
:1052700011E1209C05018E6B20BC8E2BCD0E06010A
:10528000C56F010EC66F050EC86F8E0EC76F000189
:1052900049EC0DF0B1EF31F005018F6B20BC8F2B85
:1052A000CD0E0601C56F010EC66F050EC86F8F0EBD
:1052B000C76F000149EC0DF0B1EF31F095510408D2
:1052C00034E196C093F597C092F598C091F599C0D6
:1052D00090F593C589F092C588F091C587F090C587
:1052E00086F089C0C9F688C0C8F687C0C7F686C0F0
:1052F00094F5050187C095F588C0C7F689C0C8F642
:10530000050188C096F589C0C7F6050189C097F5E3
:105310000501D10E0601C56F040EC66F050EC86FDC
:10532000940EC76F000149EC0DF0B1EF31F089C068
:10533000C9F688C0C8F687C0C7F686C098F50501CB
:1053400087C099F588C0C7F689C0C8F6050188C02E
:105350009AF589C0C7F6050189C09BF50501D10EF4
:105360000601C56F040EC66F050EC86F980EC76F95
:10537000000149EC0DF0B1EF31F09551040822E144
:10538000965125081FE1975133081CE198514108B7
:1053900019E19951490816E18E8105019C6B0001C4
:1053A0008EA103D005019C2B0001D30E0601C56F11
:1053B000010EC66F050EC86F9C0EC76F000149EC49
:1053C0000DF024D09551040821E1965125081EE1E5
:1053D000975128081BE19851310818E19951340878
:1053E00015E18E9105019D6B00018EA103D0050191
:1053F0009D2B0001D30E0601C56F010EC66F050E71
:10540000C86F9D0EC76F000149EC0DF0B1EF31F090
:1054100005019E6B00018EA103D005019E2B0001AA
:10542000D30E0601C56F010EC66F050EC86F9E0E26
:10543000C76F000149EC0DF0B1EF31F063A11AD054
:10544000030E0301866F900E856F140EF66E0F0E1D
:10545000F76E00015CEC0BF0900E0301855DD66FDA
:10546000D6C3C5F6030E0601C76F900EC66F0001C6
:10547000D0EC0EF0B1EF31F022C09FF523C0A0F5C3
:10548000D40E0601C56F020EC66F050EC86F9F0EC3
:10549000C76F000149EC0DF0B1EF31F024C0A1F568
:1054A00025C0A2F5D50E0601C56F020EC66F050E0A
:1054B000C86FA10EC76F000149EC0DF0B1EF31F0DC
:1054C000030E0301866F900E856F240EF66E0F0E8D
:1054D000F76E00015CEC0BF0900E0301855DD66F5A
:1054E000610E0601C56FD6C3C6F6030EC86F900ED7
:1054F000C76F0001E8EC0BF00501A46BA36BA4538C
:105500000FE1A35113080CE3640E0601C76F0001FD
:10551000E4EC07F004000501A32BD8B4A42BEFD7CB
:10552000FF000001B1EF31F0200EF86EF76AF66A65
:10553000050EEA6EA50EE96E0601C66B080EC56F74
:10554000000181EC0FF08FC3ADF505018FC3C6F6E6
:105550008EC3AEF50501ACC5AFF5ABC5B0F5AAC5B8
:10556000B1F5A9C5B2F5A8C5B3F5A7C5B4F5A6C5EB
:10557000B5F5A5C5B6F5D90E0601C56F0A0EC66FFD
:10558000050EC86FAD0EC76F000149EC0DF0B1EF0D
:1055900031F09551040834E196C0BAF597C0B9F5D9
:1055A00098C0B8F599C0B7F5BAC56FF0B9C56EF037
:1055B000B8C56DF0B7C56CF06FC0C9F66EC0C8F65F
:1055C0006DC0C7F66CC0BBF505016DC0BCF56EC003
:1055D000C7F66FC0C8F605016EC0BDF56FC0C7F64F
:1055E00005016FC0BEF50501E10E0601C56F040E91
:1055F000C66F050EC86FBB0EC76F000149EC0DF0FA
:10560000B1EF31F06FC0C9F66EC0C8F66DC0C7F615
:105610006CC0BFF505016DC0C0F56EC0C7F66FC0A8
:10562000C8F605016EC0C1F56FC0C7F605016FC0B1
:10563000C2F50501E10E0601C56F040EC66F050E29
:10564000C86FBF0EC76F000149EC0DF0B1EF31F02C
:10565000955104081EE1965125081BE19751330826
:1056600018E19851410815E19951490812E1208E3D
:105670000501C36B20BEC32BE30E0601C56F010EEF
:10568000C66F050EC86FC30EC76F000149EC0DF061
:1056900020D0955104081DE1965125081AE1975133
:1056A000280817E19851310814E19951340811E1A3
:1056B000209E0501C46B20BEC42BE30E0601C56FFE
:1056C000010EC66F050EC86FC40EC76F000149EC0E
:1056D0000DF0B1EF31F00501C56B20BEC52BE30E17
:1056E0000601C56F010EC66F050EC86FC50EC76FE8
:1056F000000149EC0DF0B1EF31F0955104081EE1C5
:10570000965125081BE19751330818E1985141083B
:1057100015E19951490812E1208A0501C66B20BAAA
:10572000C62BE50E0601C56F010EC66F050EC86FCC
:10573000C60EC76F000149EC0DF020D0955104084A
:105740001DE1965125081AE19751280817E1985153
:10575000310814E19951340811E1209A0501C76B11
:1057600020BAC72BE50E0601C56F010EC66F050EE8
:10577000C86FC70EC76F000149EC0DF0B1EF31F0F3
:105780000501C86B20BAC82BE50E0601C56F010ED6
:10579000C66F050EC86FC80EC76F000149EC0DF04B
:1057A000B1EF31F00501C96B0001F6EC10F002C059
:1057B00003F001C0E1FF02C0E2FF060EEA6EE96EEF
:1057C000270E016EE6CFEEFF012EFCD70501C95171
:1057D000C92B036ACA0FE96E050E0320EA6E0601A3
:1057E00007C600F000C0EFFF0501C951C92B036ACD
:1057F000CA0FE96E050E0320EA6E060106C600F028
:1058000000C0EFFF0501C951C92B036ACA0FE96E39
:10581000050E0320EA6E06010BC600F000C0EFFF84
:105820000501C951C92B036ACA0FE96E050E032091
:10583000EA6E06010AC600F000C0EFFF0501C9517B
:10584000C92B036ACA0FE96E050E0320EA6E060132
:1058500009C600F000C0EFFF0501C951C92B036A5A
:10586000CA0FE96E050E0320EA6E060108C600F0B5
:1058700000C0EFFF0501C951C92B036ACA0FE96EC9
:10588000050E0320EA6E06010DC600F000C0EFFF12
:105890000501C951C92B036ACA0FE96E050E032021
:1058A000EA6E06010CC600F000C0EFFF0501C95109
:1058B000C92B036ACA0FE96E050E0320EA6E000EBB
:1058C00006010EB1010EEF6E0501C951C92B036A25
:1058D000CA0FE96E050E0320EA6E000E06010EB334
:1058E000010EEF6E0501C951C92B036ACA0FE96E9B
:1058F000050E0320EA6E000E06010EB5010EEF6ED6
:105900000501C951C92B036ACA0FE96E050E0320B0
:10591000EA6E000E06010EB7010EEF6E0501C951C9
:10592000C92B036ACA0FE96E050E0320EA6E060151
:1059300010C600F000C0EFFF0501C951C92B036A72
:10594000CA0FE96E050E0320EA6E06010FC600F0CD
:1059500000C0EFFF0501C951C92B036ACA0FE96EE8
:10596000050E0320EA6E060112C600F000C0EFFF2C
:105970000501C951C92B036ACA0FE96E050E032040
:10598000EA6E060111C600F000C0EFFF0501C95123
:10599000C92B036ACA0FE96E050E0320EA6E000EDA
:1059A00006010EB9010EEF6E0501C951C92B036A3C
:1059B000CA0FE96E050E0320EA6E000E06010EBB4B
:1059C000010EEF6E0501C951C92B036ACA0FE96EBA
:1059D000050E0320EA6E060116C600F000C0EFFFB8
:1059E0000501C951C92B036ACA0FE96E050E0320D0
:1059F000EA6E060115C600F000C0EFFF0501C951AF
:105A0000C92B036ACA0FE96E050E0320EA6E060170
:105A100014C600F000C0EFFF0501C951C92B036A8D
:105A2000CA0FE96E050E0320EA6E060113C600F0E8
:105A300000C0EFFF0501C951C92B036ACA0FE96E07
:105A4000050E0320EA6E000E06010EBD010EEF6E7C
:105A50000501C951C92B036ACA0FE96E050E03205F
:105A6000EA6E000E06010EBF010EEF6E0501C95170
:105A7000C92B036ACA0FE96E050E0320EA6E17C62A
:105A8000EFFFC951C92B036ACA0FE96E050E032047
:105A9000EA6E000E060124B1010EEF6E0501C95138
:105AA000C92B036ACA0FE96E050E0320EA6E0601D0
:105AB0001BC600F000C0EFFF0501C951C92B036AE6
:105AC000CA0FE96E050E0320EA6E06011AC600F041
:105AD00000C0EFFF0501C951C92B036ACA0FE96E67
